:020000020000FC
:100000000C9406000C9482000C94880099273327E6
:100010002FEF2ABB27BB222724BB23E721BB92BBA0
:10002000949A61E073E75CE828E02EBF2FE52DBFCE
:1000300082E000E010E0282F5DD000E010E053D017
:10004000822F0E9457007BBB58BB0E9439008799C2
:100050000E945F0066232FB721FF0E94960043E0B5
:1000600034E08413382F0E94B5003A95E1F70C94E0
:100070002300222722BB81FD919A80FD909A67FD83
:10008000969A6D3F89F0633079F06E3F51F062309F
:1000900041F06F3F19F0613009F00895949A9598F6
:1000A00008959498959A0895949A959A08952FE0B2
:1000B00025BF20EC2BBF22272ABF78940895879B69
:1000C000089523B32917D9F30E94B50023B3291744
:1000D00031F0722F2FEF572F52270C946400879B1B
:1000E00008950C946F00E199FECF0EBB1FBBE09A00
:1000F0002DB30895E199FECF0EBB1FBB2DBBE29A35
:10010000E19A0895639524E0621318956DEF1895B0
:10011000839500E010E0282FEDDF24E0821318958E
:1001200081E000E010E0282FE5DF1895272F422F0F
:10013000362F67FD0E94AB0067FF0E94B000722F50
:10014000252F422F362F67FD0E94AB0067FF0E94CC
:10015000B000522F0895441F221F3395E1F70895F0
:10016000479527953A95E1F70895FAE0EFE6DBE049
:10017000DA95F1F7EA95E1F7FA95D1F700000895DD
:00000001FF
